{
  "_format": "hh-sol-artifact-1",
  "contractName": "AntiGravity",
  "sourceName": "contracts/AntiGravity.sol",
  "abi": [
    {
      "anonymous": false,
      "inputs": [
        {
          "indexed": true,
          "internalType": "address",
          "name": "sender",
          "type": "address"
        },
        {
          "indexed": true,
          "internalType": "address",
          "name": "receiver",
          "type": "address"
        },
        {
          "indexed": false,
          "internalType": "string",
          "name": "message",
          "type": "string"
        },
        {
          "indexed": false,
          "internalType": "uint256",
          "name": "timestamp",
          "type": "uint256"
        }
      ],
      "name": "TransactionSent",
      "type": "event"
    },
    {
      "inputs": [],
      "name": "getAllTransactions",
      "outputs": [
        {
          "components": [
            {
              "internalType": "address",
              "name": "sender",
              "type": "address"
            },
            {
              "internalType": "address",
              "name": "receiver",
              "type": "address"
            },
            {
              "internalType": "string",
              "name": "message",
              "type": "string"
            },
            {
              "internalType": "uint256",
              "name": "timestamp",
              "type": "uint256"
            }
          ],
          "internalType": "struct AntiGravity.Transaction[]",
          "name": "",
          "type": "tuple[]"
        }
      ],
      "stateMutability": "view",
      "type": "function"
    },
    {
      "inputs": [
        {
          "internalType": "uint256",
          "name": "index",
          "type": "uint256"
        }
      ],
      "name": "getTransaction",
      "outputs": [
        {
          "internalType": "address",
          "name": "sender",
          "type": "address"
        },
        {
          "internalType": "address",
          "name": "receiver",
          "type": "address"
        },
        {
          "internalType": "string",
          "name": "message",
          "type": "string"
        },
        {
          "internalType": "uint256",
          "name": "timestamp",
          "type": "uint256"
        }
      ],
      "stateMutability": "view",
      "type": "function"
    },
    {
      "inputs": [],
      "name": "getTransactionCount",
      "outputs": [
        {
          "internalType": "uint256",
          "name": "",
          "type": "uint256"
        }
      ],
      "stateMutability": "view",
      "type": "function"
    },
    {
      "inputs": [
        {
          "internalType": "address",
          "name": "_receiver",
          "type": "address"
        },
        {
          "internalType": "string",
          "name": "_message",
          "type": "string"
        }
      ],
      "name": "sendTransaction",
      "outputs": [],
      "stateMutability": "nonpayable",
      "type": "function"
    },
    {
      "inputs": [
        {
          "internalType": "uint256",
          "name": "",
          "type": "uint256"
        }
      ],
      "name": "transactions",
      "outputs": [
        {
          "internalType": "address",
          "name": "sender",
          "type": "address"
        },
        {
          "internalType": "address",
          "name": "receiver",
          "type": "address"
        },
        {
          "internalType": "string",
          "name": "message",
          "type": "string"
        },
        {
          "internalType": "uint256",
          "name": "timestamp",
          "type": "uint256"
        }
      ],
      "stateMutability": "view",
      "type": "function"
    }
  ],
  "bytecode": "0x6080604052348015600f57600080fd5b506110608061001f6000396000f3fe608060405234801561001057600080fd5b50600436106100575760003560e01c806327506f531461005c5780632e7700f01461007a57806333ea3dc8146100985780636387f9f6146100cb5780639ace38c2146100e7575b600080fd5b61006461011a565b6040516100719190610966565b60405180910390f35b6100826102c1565b60405161008f9190610997565b60405180910390f35b6100b260048036038101906100ad91906109f2565b6102cd565b6040516100c29493929190610a78565b60405180910390f35b6100e560048036038101906100e09190610c25565b6104b6565b005b61010160048036038101906100fc91906109f2565b61064f565b6040516101119493929190610a78565b60405180910390f35b60606000805480602002602001604051908101604052809291908181526020016000905b828210156102b857838290600052602060002090600402016040518060800160405290816000820160009054906101000a900473ffffffffffffffffffffffffffffffffffffffff1673ffffffffffffffffffffffffffffffffffffffff1673ffffffffffffffffffffffffffffffffffffffff1681526020016001820160009054906101000a900473ffffffffffffffffffffffffffffffffffffffff1673ffffffffffffffffffffffffffffffffffffffff1673ffffffffffffffffffffffffffffffffffffffff16815260200160028201805461021d90610cb0565b80601f016020809104026020016040519081016040528092919081815260200182805461024990610cb0565b80156102965780601f1061026b57610100808354040283529160200191610296565b820191906000526020600020905b81548152906001019060200180831161027957829003601f168201915b505050505081526020016003820154815250508152602001906001019061013e565b50505050905090565b60008080549050905090565b600080606060008080549050851061031a576040517f08c379a000000000000000000000000000000000000000000000000000000000815260040161031190610d2d565b60405180910390fd5b600080868154811061032f5761032e610d4d565b5b90600052602060002090600402016040518060800160405290816000820160009054906101000a900473ffffffffffffffffffffffffffffffffffffffff1673ffffffffffffffffffffffffffffffffffffffff1673ffffffffffffffffffffffffffffffffffffffff1681526020016001820160009054906101000a900473ffffffffffffffffffffffffffffffffffffffff1673ffffffffffffffffffffffffffffffffffffffff1673ffffffffffffffffffffffffffffffffffffffff16815260200160028201805461040490610cb0565b80601f016020809104026020016040519081016040528092919081815260200182805461043090610cb0565b801561047d5780601f106104525761010080835404028352916020019161047d565b820191906000526020600020905b81548152906001019060200180831161046057829003601f168201915b50505050508152602001600382015481525050905080600001518160200151826040015183606001519450945094509450509193509193565b600060405180608001604052803373ffffffffffffffffffffffffffffffffffffffff1681526020018473ffffffffffffffffffffffffffffffffffffffff168152602001838152602001428152509050600081908060018154018082558091505060019003906000526020600020906004020160009091909190915060008201518160000160006101000a81548173ffffffffffffffffffffffffffffffffffffffff021916908373ffffffffffffffffffffffffffffffffffffffff16021790555060208201518160010160006101000a81548173ffffffffffffffffffffffffffffffffffffffff021916908373ffffffffffffffffffffffffffffffffffffffff16021790555060408201518160020190816105d69190610f28565b506060820151816003015550508273ffffffffffffffffffffffffffffffffffffffff163373ffffffffffffffffffffffffffffffffffffffff167f6925b38cf3467d75ea7f3298b34568472aaa6cb55e9628dc85461b5b2eeb4cdb8442604051610642929190610ffa565b60405180910390a3505050565b6000818154811061065f57600080fd5b90600052602060002090600402016000915090508060000160009054906101000a900473ffffffffffffffffffffffffffffffffffffffff16908060010160009054906101000a900473ffffffffffffffffffffffffffffffffffffffff16908060020180546106ce90610cb0565b80601f01602080910402602001604051908101604052809291908181526020018280546106fa90610cb0565b80156107475780601f1061071c57610100808354040283529160200191610747565b820191906000526020600020905b81548152906001019060200180831161072a57829003601f168201915b5050505050908060030154905084565b600081519050919050565b600082825260208201905092915050565b6000819050602082019050919050565b600073ffffffffffffffffffffffffffffffffffffffff82169050919050565b60006107ae82610783565b9050919050565b6107be816107a3565b82525050565b600081519050919050565b600082825260208201905092915050565b60005b838110156107fe5780820151818401526020810190506107e3565b60008484015250505050565b6000601f19601f8301169050919050565b6000610826826107c4565b61083081856107cf565b93506108408185602086016107e0565b6108498161080a565b840191505092915050565b6000819050919050565b61086781610854565b82525050565b600060808301600083015161088560008601826107b5565b50602083015161089860208601826107b5565b50604083015184820360408601526108b0828261081b565b91505060608301516108c5606086018261085e565b508091505092915050565b60006108dc838361086d565b905092915050565b6000602082019050919050565b60006108fc82610757565b6109068185610762565b93508360208202850161091885610773565b8060005b85811015610954578484038952815161093585826108d0565b9450610940836108e4565b925060208a0199505060018101905061091c565b50829750879550505050505092915050565b6000602082019050818103600083015261098081846108f1565b905092915050565b61099181610854565b82525050565b60006020820190506109ac6000830184610988565b92915050565b6000604051905090565b600080fd5b600080fd5b6109cf81610854565b81146109da57600080fd5b50565b6000813590506109ec816109c6565b92915050565b600060208284031215610a0857610a076109bc565b5b6000610a16848285016109dd565b91505092915050565b610a28816107a3565b82525050565b600082825260208201905092915050565b6000610a4a826107c4565b610a548185610a2e565b9350610a648185602086016107e0565b610a6d8161080a565b840191505092915050565b6000608082019050610a8d6000830187610a1f565b610a9a6020830186610a1f565b8181036040830152610aac8185610a3f565b9050610abb6060830184610988565b95945050505050565b610acd816107a3565b8114610ad857600080fd5b50565b600081359050610aea81610ac4565b92915050565b600080fd5b600080fd5b7f4e487b7100000000000000000000000000000000000000000000000000000000600052604160045260246000fd5b610b328261080a565b810181811067ffffffffffffffff82111715610b5157610b50610afa565b5b80604052505050565b6000610b646109b2565b9050610b708282610b29565b919050565b600067ffffffffffffffff821115610b9057610b8f610afa565b5b610b998261080a565b9050602081019050919050565b82818337600083830152505050565b6000610bc8610bc384610b75565b610b5a565b905082815260208101848484011115610be457610be3610af5565b5b610bef848285610ba6565b509392505050565b600082601f830112610c0c57610c0b610af0565b5b8135610c1c848260208601610bb5565b91505092915050565b60008060408385031215610c3c57610c3b6109bc565b5b6000610c4a85828601610adb565b925050602083013567ffffffffffffffff811115610c6b57610c6a6109c1565b5b610c7785828601610bf7565b9150509250929050565b7f4e487b7100000000000000000000000000000000000000000000000000000000600052602260045260246000fd5b60006002820490506001821680610cc857607f821691505b602082108103610cdb57610cda610c81565b5b50919050565b7f5472616e73616374696f6e20646f6573206e6f74206578697374000000000000600082015250565b6000610d17601a83610a2e565b9150610d2282610ce1565b602082019050919050565b60006020820190508181036000830152610d4681610d0a565b9050919050565b7f4e487b7100000000000000000000000000000000000000000000000000000000600052603260045260246000fd5b60008190508160005260206000209050919050565b60006020601f8301049050919050565b600082821b905092915050565b600060088302610dde7fffffffffffffffffffffffffffffffffffffffffffffffffffffffffffffffff82610da1565b610de88683610da1565b95508019841693508086168417925050509392505050565b6000819050919050565b6000610e25610e20610e1b84610854565b610e00565b610854565b9050919050565b6000819050919050565b610e3f83610e0a565b610e53610e4b82610e2c565b848454610dae565b825550505050565b600090565b610e68610e5b565b610e73818484610e36565b505050565b5b81811015610e9757610e8c600082610e60565b600181019050610e79565b5050565b601f821115610edc57610ead81610d7c565b610eb684610d91565b81016020851015610ec5578190505b610ed9610ed185610d91565b830182610e78565b50505b505050565b600082821c905092915050565b6000610eff60001984600802610ee1565b1980831691505092915050565b6000610f188383610eee565b9150826002028217905092915050565b610f31826107c4565b67ffffffffffffffff811115610f4a57610f49610afa565b5b610f548254610cb0565b610f5f828285610e9b565b600060209050601f831160018114610f925760008415610f80578287015190505b610f8a8582610f0c565b865550610ff2565b601f198416610fa086610d7c565b60005b82811015610fc857848901518255600182019150602085019450602081019050610fa3565b86831015610fe55784890151610fe1601f891682610eee565b8355505b6001600288020188555050505b505050505050565b600060408201905081810360008301526110148185610a3f565b90506110236020830184610988565b939250505056fea264697066735822122078c025781e9cb0fd84eb9b73e57d1f00de4c0c509a41f9d67c0b2b2550edbbd364736f6c634300081b0033",
  "linkReferences": {},
  "deployedLinkReferences": {}
}